{
  "_format": "hh-sol-artifact-1",
  "contractName": "Payment",
  "sourceName": "contracts/Payment.sol",
  "abi": [
    {
      "anonymous": false,
      "inputs": [
        {
          "indexed": false,
          "internalType": "address",
          "name": "from",
          "type": "address"
        },
        {
          "indexed": false,
          "internalType": "address",
          "name": "to",
          "type": "address"
        },
        {
          "indexed": false,
          "internalType": "uint256",
          "name": "amount",
          "type": "uint256"
        },
        {
          "indexed": false,
          "internalType": "uint256",
          "name": "planId",
          "type": "uint256"
        },
        {
          "indexed": false,
          "internalType": "uint256",
          "name": "date",
          "type": "uint256"
        }
      ],
      "name": "PaymentSent",
      "type": "event"
    },
    {
      "anonymous": false,
      "inputs": [
        {
          "indexed": false,
          "internalType": "address",
          "name": "merchant",
          "type": "address"
        },
        {
          "indexed": false,
          "internalType": "uint256",
          "name": "planId",
          "type": "uint256"
        },
        {
          "indexed": false,
          "internalType": "uint256",
          "name": "date",
          "type": "uint256"
        }
      ],
      "name": "PlanCreated",
      "type": "event"
    },
    {
      "anonymous": false,
      "inputs": [
        {
          "indexed": false,
          "internalType": "address",
          "name": "subscriber",
          "type": "address"
        },
        {
          "indexed": false,
          "internalType": "uint256",
          "name": "planId",
          "type": "uint256"
        },
        {
          "indexed": false,
          "internalType": "uint256",
          "name": "date",
          "type": "uint256"
        }
      ],
      "name": "SubscriptionCancelled",
      "type": "event"
    },
    {
      "anonymous": false,
      "inputs": [
        {
          "indexed": false,
          "internalType": "address",
          "name": "subscriber",
          "type": "address"
        },
        {
          "indexed": false,
          "internalType": "uint256",
          "name": "planId",
          "type": "uint256"
        },
        {
          "indexed": false,
          "internalType": "uint256",
          "name": "date",
          "type": "uint256"
        }
      ],
      "name": "SubscriptionCreated",
      "type": "event"
    },
    {
      "inputs": [
        {
          "internalType": "address",
          "name": "_subscriber",
          "type": "address"
        },
        {
          "internalType": "uint256",
          "name": "planId",
          "type": "uint256"
        }
      ],
      "name": "cancel",
      "outputs": [],
      "stateMutability": "nonpayable",
      "type": "function"
    },
    {
      "inputs": [
        {
          "internalType": "address",
          "name": "merchant",
          "type": "address"
        },
        {
          "internalType": "address",
          "name": "token",
          "type": "address"
        },
        {
          "internalType": "uint256",
          "name": "amount",
          "type": "uint256"
        },
        {
          "internalType": "uint256",
          "name": "frequency",
          "type": "uint256"
        }
      ],
      "name": "createPlan",
      "outputs": [],
      "stateMutability": "nonpayable",
      "type": "function"
    },
    {
      "inputs": [],
      "name": "nextPlanId",
      "outputs": [
        {
          "internalType": "uint256",
          "name": "",
          "type": "uint256"
        }
      ],
      "stateMutability": "view",
      "type": "function"
    },
    {
      "inputs": [
        {
          "internalType": "address",
          "name": "subscriber",
          "type": "address"
        },
        {
          "internalType": "uint256",
          "name": "planId",
          "type": "uint256"
        }
      ],
      "name": "pay",
      "outputs": [],
      "stateMutability": "nonpayable",
      "type": "function"
    },
    {
      "inputs": [
        {
          "internalType": "uint256",
          "name": "",
          "type": "uint256"
        }
      ],
      "name": "plans",
      "outputs": [
        {
          "internalType": "address",
          "name": "merchant",
          "type": "address"
        },
        {
          "internalType": "address",
          "name": "token",
          "type": "address"
        },
        {
          "internalType": "uint256",
          "name": "amount",
          "type": "uint256"
        },
        {
          "internalType": "uint256",
          "name": "frequency",
          "type": "uint256"
        }
      ],
      "stateMutability": "view",
      "type": "function"
    },
    {
      "inputs": [
        {
          "internalType": "address",
          "name": "_subscriber",
          "type": "address"
        },
        {
          "internalType": "uint256",
          "name": "planId",
          "type": "uint256"
        }
      ],
      "name": "subscribe",
      "outputs": [],
      "stateMutability": "nonpayable",
      "type": "function"
    },
    {
      "inputs": [
        {
          "internalType": "address",
          "name": "",
          "type": "address"
        },
        {
          "internalType": "uint256",
          "name": "",
          "type": "uint256"
        }
      ],
      "name": "subscriptions",
      "outputs": [
        {
          "internalType": "address",
          "name": "subscriber",
          "type": "address"
        },
        {
          "internalType": "uint256",
          "name": "start",
          "type": "uint256"
        },
        {
          "internalType": "uint256",
          "name": "nextPayment",
          "type": "uint256"
        }
      ],
      "stateMutability": "view",
      "type": "function"
    }
  ],
  "bytecode": "0x608060405234801561001057600080fd5b5061125a806100206000396000f3fe608060405234801561001057600080fd5b506004361061007d5760003560e01c80638de692841161005b5780638de69284146100ee57806398590ef91461010a578063b162061614610126578063c4076876146101595761007d565b80631a2fd6f0146100825780635f8d26b21461009e578063623da3d1146100bc575b600080fd5b61009c60048036038101906100979190610c68565b610175565b005b6100a661038d565b6040516100b39190610cde565b60405180910390f35b6100d660048036038101906100d19190610cf9565b610393565b6040516100e593929190610d48565b60405180910390f35b61010860048036038101906101039190610cf9565b6103ea565b005b610124600480360381019061011f9190610cf9565b61070e565b005b610140600480360381019061013b9190610d7f565b6108bf565b6040516101509493929190610dac565b60405180910390f35b610173600480360381019061016e9190610cf9565b61092f565b005b600073ffffffffffffffffffffffffffffffffffffffff168373ffffffffffffffffffffffffffffffffffffffff16036101e4576040517f08c379a00000000000000000000000000000000000000000000000000000000081526004016101db90610e4e565b60405180910390fd5b60008211610227576040517f08c379a000000000000000000000000000000000000000000000000000000000815260040161021e90610eba565b60405180910390fd5b6000811161026a576040517f08c379a000000000000000000000000000000000000000000000000000000000815260040161026190610f26565b60405180910390fd5b60405180608001604052808573ffffffffffffffffffffffffffffffffffffffff1681526020018473ffffffffffffffffffffffffffffffffffffffff16815260200183815260200182815250600160008054815260200190815260200160002060008201518160000160006101000a81548173ffffffffffffffffffffffffffffffffffffffff021916908373ffffffffffffffffffffffffffffffffffffffff16021790555060208201518160010160006101000a81548173ffffffffffffffffffffffffffffffffffffffff021916908373ffffffffffffffffffffffffffffffffffffffff160217905550604082015181600201556060820151816003015590505060008081548092919061038290610f75565b919050555050505050565b60005481565b6002602052816000526040600020602052806000526040600020600091509150508060000160009054906101000a900473ffffffffffffffffffffffffffffffffffffffff16908060010154908060020154905083565b60006001600083815260200190815260200160002060010160009054906101000a900473ffffffffffffffffffffffffffffffffffffffff1690506000600160008481526020019081526020016000209050600073ffffffffffffffffffffffffffffffffffffffff168160000160009054906101000a900473ffffffffffffffffffffffffffffffffffffffff1673ffffffffffffffffffffffffffffffffffffffff16036104cf576040517f08c379a00000000000000000000000000000000000000000000000000000000081526004016104c690611009565b60405180910390fd5b8173ffffffffffffffffffffffffffffffffffffffff166323b872dd858360000160009054906101000a900473ffffffffffffffffffffffffffffffffffffffff1684600201546040518463ffffffff1660e01b815260040161053493929190611029565b6020604051808303816000875af1158015610553573d6000803e3d6000fd5b505050506040513d601f19601f820116820180604052508101906105779190611098565b507f577462848cc2ec95e5ef95bf0b154b97340221cd1002ea0511a3877a7f20fb8c848260000160009054906101000a900473ffffffffffffffffffffffffffffffffffffffff16836002015486426040516105d79594939291906110c5565b60405180910390a160405180606001604052808573ffffffffffffffffffffffffffffffffffffffff16815260200142815260200182600301544261061c9190611118565b815250600260008673ffffffffffffffffffffffffffffffffffffffff1673ffffffffffffffffffffffffffffffffffffffff168152602001908152602001600020600085815260200190815260200160002060008201518160000160006101000a81548173ffffffffffffffffffffffffffffffffffffffff021916908373ffffffffffffffffffffffffffffffffffffffff16021790555060208201518160010155604082015181600201559050507feec977e786e7248a658b0474ccf8f57f37ead019014ec4d5ba1542ddabeff1b484844260405161070093929190610d48565b60405180910390a150505050565b6000600260008473ffffffffffffffffffffffffffffffffffffffff1673ffffffffffffffffffffffffffffffffffffffff16815260200190815260200160002060008381526020019081526020016000209050600073ffffffffffffffffffffffffffffffffffffffff168160000160009054906101000a900473ffffffffffffffffffffffffffffffffffffffff1673ffffffffffffffffffffffffffffffffffffffff16036107f5576040517f08c379a00000000000000000000000000000000000000000000000000000000081526004016107ec90611198565b60405180910390fd5b600260008473ffffffffffffffffffffffffffffffffffffffff1673ffffffffffffffffffffffffffffffffffffffff1681526020019081526020016000206000838152602001908152602001600020600080820160006101000a81549073ffffffffffffffffffffffffffffffffffffffff02191690556001820160009055600282016000905550507fde4047f3bd050ef9b8743c61b37fd72275056d1ccb33d1eb3f22c80cb14df2898383426040516108b293929190610d48565b60405180910390a1505050565b60016020528060005260406000206000915090508060000160009054906101000a900473ffffffffffffffffffffffffffffffffffffffff16908060010160009054906101000a900473ffffffffffffffffffffffffffffffffffffffff16908060020154908060030154905084565b6000600260008473ffffffffffffffffffffffffffffffffffffffff1673ffffffffffffffffffffffffffffffffffffffff16815260200190815260200160002060008381526020019081526020016000209050600060016000848152602001908152602001600020905060008160010160009054906101000a900473ffffffffffffffffffffffffffffffffffffffff169050600073ffffffffffffffffffffffffffffffffffffffff168360000160009054906101000a900473ffffffffffffffffffffffffffffffffffffffff1673ffffffffffffffffffffffffffffffffffffffff1603610a56576040517f08c379a0000000000000000000000000000000000000000000000000000000008152600401610a4d90611198565b60405180910390fd5b82600201544211610a9c576040517f08c379a0000000000000000000000000000000000000000000000000000000008152600401610a9390611204565b60405180910390fd5b8073ffffffffffffffffffffffffffffffffffffffff166323b872dd868460000160009054906101000a900473ffffffffffffffffffffffffffffffffffffffff1685600201546040518463ffffffff1660e01b8152600401610b0193929190611029565b6020604051808303816000875af1158015610b20573d6000803e3d6000fd5b505050506040513d601f19601f82011682018060405250810190610b449190611098565b507f577462848cc2ec95e5ef95bf0b154b97340221cd1002ea0511a3877a7f20fb8c858360000160009054906101000a900473ffffffffffffffffffffffffffffffffffffffff1684600201548742604051610ba49594939291906110c5565b60405180910390a181600301548360020154610bc09190611118565b83600201819055505050505050565b600080fd5b600073ffffffffffffffffffffffffffffffffffffffff82169050919050565b6000610bff82610bd4565b9050919050565b610c0f81610bf4565b8114610c1a57600080fd5b50565b600081359050610c2c81610c06565b92915050565b6000819050919050565b610c4581610c32565b8114610c5057600080fd5b50565b600081359050610c6281610c3c565b92915050565b60008060008060808587031215610c8257610c81610bcf565b5b6000610c9087828801610c1d565b9450506020610ca187828801610c1d565b9350506040610cb287828801610c53565b9250506060610cc387828801610c53565b91505092959194509250565b610cd881610c32565b82525050565b6000602082019050610cf36000830184610ccf565b92915050565b60008060408385031215610d1057610d0f610bcf565b5b6000610d1e85828601610c1d565b9250506020610d2f85828601610c53565b9150509250929050565b610d4281610bf4565b82525050565b6000606082019050610d5d6000830186610d39565b610d6a6020830185610ccf565b610d776040830184610ccf565b949350505050565b600060208284031215610d9557610d94610bcf565b5b6000610da384828501610c53565b91505092915050565b6000608082019050610dc16000830187610d39565b610dce6020830186610d39565b610ddb6040830185610ccf565b610de86060830184610ccf565b95945050505050565b600082825260208201905092915050565b7f616464726573732063616e6e6f74206265206e756c6c20616464726573730000600082015250565b6000610e38601e83610df1565b9150610e4382610e02565b602082019050919050565b60006020820190508181036000830152610e6781610e2b565b9050919050565b7f616d6f756e74206e6565647320746f206265203e203000000000000000000000600082015250565b6000610ea4601683610df1565b9150610eaf82610e6e565b602082019050919050565b60006020820190508181036000830152610ed381610e97565b9050919050565b7f6672657175656e6379206e6565647320746f206265203e203000000000000000600082015250565b6000610f10601983610df1565b9150610f1b82610eda565b602082019050919050565b60006020820190508181036000830152610f3f81610f03565b9050919050565b7f4e487b7100000000000000000000000000000000000000000000000000000000600052601160045260246000fd5b6000610f8082610c32565b91507fffffffffffffffffffffffffffffffffffffffffffffffffffffffffffffffff8203610fb257610fb1610f46565b5b600182019050919050565b7f7468697320706c616e20646f6573206e6f742065786973740000000000000000600082015250565b6000610ff3601883610df1565b9150610ffe82610fbd565b602082019050919050565b6000602082019050818103600083015261102281610fe6565b9050919050565b600060608201905061103e6000830186610d39565b61104b6020830185610d39565b6110586040830184610ccf565b949350505050565b60008115159050919050565b61107581611060565b811461108057600080fd5b50565b6000815190506110928161106c565b92915050565b6000602082840312156110ae576110ad610bcf565b5b60006110bc84828501611083565b91505092915050565b600060a0820190506110da6000830188610d39565b6110e76020830187610d39565b6110f46040830186610ccf565b6111016060830185610ccf565b61110e6080830184610ccf565b9695505050505050565b600061112382610c32565b915061112e83610c32565b925082820190508082111561114657611145610f46565b5b92915050565b7f7468697320737562736372697074696f6e20646f6573206e6f74206578697374600082015250565b6000611182602083610df1565b915061118d8261114c565b602082019050919050565b600060208201905081810360008301526111b181611175565b9050919050565b7f6e6f742064756520796574000000000000000000000000000000000000000000600082015250565b60006111ee600b83610df1565b91506111f9826111b8565b602082019050919050565b6000602082019050818103600083015261121d816111e1565b905091905056fea26469706673582212209fefd6cc8c0a3999f7d0cd3396b1dd6860013f0a70e07e9b32c3089bafe7b03e64736f6c63430008120033",
  "linkReferences": {},
  "deployedLinkReferences": {}
}